{
  "contractName": "Authentication",
  "abi": [
    {
      "inputs": [
        {
          "internalType": "address",
          "name": "_signer",
          "type": "address"
        },
        {
          "internalType": "string",
          "name": "_message",
          "type": "string"
        },
        {
          "internalType": "bytes",
          "name": "_sig",
          "type": "bytes"
        }
      ],
      "name": "verify",
      "outputs": [
        {
          "internalType": "bool",
          "name": "",
          "type": "bool"
        }
      ],
      "stateMutability": "pure",
      "type": "function",
      "constant": true
    },
    {
      "inputs": [
        {
          "internalType": "string",
          "name": "_message",
          "type": "string"
        }
      ],
      "name": "getMessageHash",
      "outputs": [
        {
          "internalType": "bytes32",
          "name": "",
          "type": "bytes32"
        }
      ],
      "stateMutability": "pure",
      "type": "function",
      "constant": true
    },
    {
      "inputs": [
        {
          "internalType": "bytes32",
          "name": "_messageHash",
          "type": "bytes32"
        }
      ],
      "name": "getSignedMessageHash",
      "outputs": [
        {
          "internalType": "bytes32",
          "name": "",
          "type": "bytes32"
        }
      ],
      "stateMutability": "pure",
      "type": "function",
      "constant": true
    },
    {
      "inputs": [
        {
          "internalType": "bytes32",
          "name": "_signedMessageHash",
          "type": "bytes32"
        },
        {
          "internalType": "bytes",
          "name": "_sig",
          "type": "bytes"
        }
      ],
      "name": "recover",
      "outputs": [
        {
          "internalType": "address",
          "name": "",
          "type": "address"
        }
      ],
      "stateMutability": "pure",
      "type": "function",
      "constant": true
    }
  ],
  "bytecode": "0x608060405234801561001057600080fd5b5061094b806100206000396000f3fe608060405234801561001057600080fd5b506004361061004c5760003560e01c806319045a25146100515780632dd34f0f14610081578063b446f3b2146100b1578063e832d2d7146100e1575b600080fd5b61006b60048036038101906100669190610436565b610111565b60405161007891906104d3565b60405180910390f35b61009b600480360381019061009691906105bb565b610180565b6040516100a89190610661565b60405180910390f35b6100cb60048036038101906100c6919061067c565b6101de565b6040516100d891906106d4565b60405180910390f35b6100fb60048036038101906100f691906106ef565b61020e565b60405161010891906106d4565b60405180910390f35b6000806000806101208561023e565b925092509250600186828585604051600081526020016040526040516101499493929190610738565b6020604051602081039080840390855afa15801561016b573d6000803e3d6000fd5b50505060206040510351935050505092915050565b60008061018c846101de565b905060006101998261020e565b90508573ffffffffffffffffffffffffffffffffffffffff166101bc8286610111565b73ffffffffffffffffffffffffffffffffffffffff1614925050509392505050565b6000816040516020016101f191906107ee565b604051602081830303815290604052805190602001209050919050565b6000816040516020016102219190610872565b604051602081830303815290604052805190602001209050919050565b60008060006041845114610287576040517f08c379a000000000000000000000000000000000000000000000000000000000815260040161027e906108f5565b60405180910390fd5b6020840151925060408401519150606084015160001a90509193909250565b6000604051905090565b600080fd5b600080fd5b6000819050919050565b6102cd816102ba565b81146102d857600080fd5b50565b6000813590506102ea816102c4565b92915050565b600080fd5b600080fd5b6000601f19601f8301169050919050565b7f4e487b7100000000000000000000000000000000000000000000000000000000600052604160045260246000fd5b610343826102fa565b810181811067ffffffffffffffff821117156103625761036161030b565b5b80604052505050565b60006103756102a6565b9050610381828261033a565b919050565b600067ffffffffffffffff8211156103a1576103a061030b565b5b6103aa826102fa565b9050602081019050919050565b82818337600083830152505050565b60006103d96103d484610386565b61036b565b9050828152602081018484840111156103f5576103f46102f5565b5b6104008482856103b7565b509392505050565b600082601f83011261041d5761041c6102f0565b5b813561042d8482602086016103c6565b91505092915050565b6000806040838503121561044d5761044c6102b0565b5b600061045b858286016102db565b925050602083013567ffffffffffffffff81111561047c5761047b6102b5565b5b61048885828601610408565b9150509250929050565b600073ffffffffffffffffffffffffffffffffffffffff82169050919050565b60006104bd82610492565b9050919050565b6104cd816104b2565b82525050565b60006020820190506104e860008301846104c4565b92915050565b6104f7816104b2565b811461050257600080fd5b50565b600081359050610514816104ee565b92915050565b600067ffffffffffffffff8211156105355761053461030b565b5b61053e826102fa565b9050602081019050919050565b600061055e6105598461051a565b61036b565b90508281526020810184848401111561057a576105796102f5565b5b6105858482856103b7565b509392505050565b600082601f8301126105a2576105a16102f0565b5b81356105b284826020860161054b565b91505092915050565b6000806000606084860312156105d4576105d36102b0565b5b60006105e286828701610505565b935050602084013567ffffffffffffffff811115610603576106026102b5565b5b61060f8682870161058d565b925050604084013567ffffffffffffffff8111156106305761062f6102b5565b5b61063c86828701610408565b9150509250925092565b60008115159050919050565b61065b81610646565b82525050565b60006020820190506106766000830184610652565b92915050565b600060208284031215610692576106916102b0565b5b600082013567ffffffffffffffff8111156106b0576106af6102b5565b5b6106bc8482850161058d565b91505092915050565b6106ce816102ba565b82525050565b60006020820190506106e960008301846106c5565b92915050565b600060208284031215610705576107046102b0565b5b6000610713848285016102db565b91505092915050565b600060ff82169050919050565b6107328161071c565b82525050565b600060808201905061074d60008301876106c5565b61075a6020830186610729565b61076760408301856106c5565b61077460608301846106c5565b95945050505050565b600081519050919050565b600081905092915050565b60005b838110156107b1578082015181840152602081019050610796565b60008484015250505050565b60006107c88261077d565b6107d28185610788565b93506107e2818560208601610793565b80840191505092915050565b60006107fa82846107bd565b915081905092915050565b7f19457468657265756d205369676e6564204d6573736167653a0a333200000000600082015250565b600061083b601c83610788565b915061084682610805565b601c82019050919050565b6000819050919050565b61086c610867826102ba565b610851565b82525050565b600061087d8261082e565b9150610889828461085b565b60208201915081905092915050565b600082825260208201905092915050565b7f696e76616c6964206c656e677468210000000000000000000000000000000000600082015250565b60006108df600f83610898565b91506108ea826108a9565b602082019050919050565b6000602082019050818103600083015261090e816108d2565b905091905056fea264697066735822122050f38966b52e6f5daf6aaf33ed7d329ae41b93d2471b2ca6fdd1c90dc962a5ee64736f6c63430008110033",
  "immutableReferences": {},
  "source": "// SPDX-License-Identifier: MIT\npragma solidity ^0.8.7;\n\ncontract Authentication {\n    function verify(\n        address _signer,\n        string memory _message,\n        bytes memory _sig\n    ) external pure returns (bool) {\n        bytes32 messageHash = getMessageHash(_message);\n        bytes32 signedMessageHash = getSignedMessageHash(messageHash);\n\n        return recover(signedMessageHash, _sig) == _signer;\n    }\n\n    function getMessageHash(string memory _message)\n        public\n        pure\n        returns (bytes32)\n    {\n        return keccak256(abi.encodePacked(_message));\n    }\n\n    function getSignedMessageHash(bytes32 _messageHash)\n        public\n        pure\n        returns (bytes32)\n    {\n        return\n            keccak256(\n                abi.encodePacked(\n                    \"\\x19Ethereum Signed Message:\\n32\",\n                    _messageHash\n                )\n            );\n    }\n\n    function recover(bytes32 _signedMessageHash, bytes memory _sig)\n        public\n        pure\n        returns (address)\n    {\n        (bytes32 r, bytes32 s, uint8 v) = _split(_sig);\n        return ecrecover(_signedMessageHash, v, r, s);\n    }\n\n    function _split(bytes memory _sig)\n        internal\n        pure\n        returns (\n            bytes32 r,\n            bytes32 s,\n            uint8 v\n        )\n    {\n        require(_sig.length == 65, \"invalid length!\");\n\n        assembly {\n            r := mload(add(_sig, 32))\n            s := mload(add(_sig, 64))\n            v := byte(0, mload(add(_sig, 96)))\n        }\n    }\n}\n",
  "sourcePath": "/Users/merkol/Developer/blockchain-for-iot/Truffle-project/contracts/Authentication.sol",
  "compiler": {
    "name": "solc",
    "version": "0.8.17+commit.8df45f5f.Emscripten.clang"
  },
  "schemaVersion": "3.4.11",
  "updatedAt": "2022-11-28T14:51:59.105Z",
  "networkType": "ethereum",
  "devdoc": {
    "kind": "dev",
    "methods": {},
    "version": 1
  },
  "userdoc": {
    "kind": "user",
    "methods": {},
    "version": 1
  }
}