{
  "contractName": "Registration",
  "abi": [
    {
      "inputs": [],
      "stateMutability": "nonpayable",
      "type": "constructor"
    },
    {
      "inputs": [],
      "name": "adminAdr",
      "outputs": [
        {
          "internalType": "address",
          "name": "",
          "type": "address"
        }
      ],
      "stateMutability": "view",
      "type": "function",
      "constant": true
    },
    {
      "inputs": [
        {
          "internalType": "address",
          "name": "",
          "type": "address"
        }
      ],
      "name": "deviceList",
      "outputs": [
        {
          "internalType": "address",
          "name": "device_id",
          "type": "address"
        },
        {
          "internalType": "string",
          "name": "device_name",
          "type": "string"
        },
        {
          "internalType": "bool",
          "name": "isRegistered",
          "type": "bool"
        }
      ],
      "stateMutability": "view",
      "type": "function",
      "constant": true
    },
    {
      "inputs": [],
      "name": "id",
      "outputs": [
        {
          "internalType": "uint256",
          "name": "",
          "type": "uint256"
        }
      ],
      "stateMutability": "view",
      "type": "function",
      "constant": true
    },
    {
      "inputs": [
        {
          "internalType": "string",
          "name": "device_name",
          "type": "string"
        },
        {
          "internalType": "address",
          "name": "device_id",
          "type": "address"
        }
      ],
      "name": "registerAccount",
      "outputs": [],
      "stateMutability": "nonpayable",
      "type": "function"
    }
  ],
  "bytecode": "0x6080604052600060015534801561001557600080fd5b50336000806101000a81548173ffffffffffffffffffffffffffffffffffffffff021916908373ffffffffffffffffffffffffffffffffffffffff160217905550610b62806100656000396000f3fe608060405234801561001057600080fd5b506004361061004c5760003560e01c80633274aee41461005157806382a501a41461008357806395ad1543146100a1578063af640d0f146100bd575b600080fd5b61006b60048036038101906100669190610471565b6100db565b60405161007a93929190610558565b60405180910390f35b61008b6101ba565b6040516100989190610596565b60405180910390f35b6100bb60048036038101906100b691906106e6565b6101de565b005b6100c56103f9565b6040516100d2919061075b565b60405180910390f35b60026020528060005260406000206000915090508060000160009054906101000a900473ffffffffffffffffffffffffffffffffffffffff1690806001018054610124906107a5565b80601f0160208091040260200160405190810160405280929190818152602001828054610150906107a5565b801561019d5780601f106101725761010080835404028352916020019161019d565b820191906000526020600020905b81548152906001019060200180831161018057829003601f168201915b5050505050908060020160009054906101000a900460ff16905083565b60008054906101000a900473ffffffffffffffffffffffffffffffffffffffff1681565b60008054906101000a900473ffffffffffffffffffffffffffffffffffffffff1673ffffffffffffffffffffffffffffffffffffffff163373ffffffffffffffffffffffffffffffffffffffff161461026c576040517f08c379a000000000000000000000000000000000000000000000000000000000815260040161026390610822565b60405180910390fd5b60001515600260008373ffffffffffffffffffffffffffffffffffffffff1673ffffffffffffffffffffffffffffffffffffffff16815260200190815260200160002060020160009054906101000a900460ff16151514610302576040517f08c379a00000000000000000000000000000000000000000000000000000000081526004016102f99061088e565b60405180910390fd5b60405180606001604052808273ffffffffffffffffffffffffffffffffffffffff16815260200183815260200160011515815250600260008373ffffffffffffffffffffffffffffffffffffffff1673ffffffffffffffffffffffffffffffffffffffff16815260200190815260200160002060008201518160000160006101000a81548173ffffffffffffffffffffffffffffffffffffffff021916908373ffffffffffffffffffffffffffffffffffffffff16021790555060208201518160010190816103d19190610a5a565b5060408201518160020160006101000a81548160ff0219169083151502179055509050505050565b60015481565b6000604051905090565b600080fd5b600080fd5b600073ffffffffffffffffffffffffffffffffffffffff82169050919050565b600061043e82610413565b9050919050565b61044e81610433565b811461045957600080fd5b50565b60008135905061046b81610445565b92915050565b60006020828403121561048757610486610409565b5b60006104958482850161045c565b91505092915050565b6104a781610433565b82525050565b600081519050919050565b600082825260208201905092915050565b60005b838110156104e75780820151818401526020810190506104cc565b60008484015250505050565b6000601f19601f8301169050919050565b600061050f826104ad565b61051981856104b8565b93506105298185602086016104c9565b610532816104f3565b840191505092915050565b60008115159050919050565b6105528161053d565b82525050565b600060608201905061056d600083018661049e565b818103602083015261057f8185610504565b905061058e6040830184610549565b949350505050565b60006020820190506105ab600083018461049e565b92915050565b600080fd5b600080fd5b7f4e487b7100000000000000000000000000000000000000000000000000000000600052604160045260246000fd5b6105f3826104f3565b810181811067ffffffffffffffff82111715610612576106116105bb565b5b80604052505050565b60006106256103ff565b905061063182826105ea565b919050565b600067ffffffffffffffff821115610651576106506105bb565b5b61065a826104f3565b9050602081019050919050565b82818337600083830152505050565b600061068961068484610636565b61061b565b9050828152602081018484840111156106a5576106a46105b6565b5b6106b0848285610667565b509392505050565b600082601f8301126106cd576106cc6105b1565b5b81356106dd848260208601610676565b91505092915050565b600080604083850312156106fd576106fc610409565b5b600083013567ffffffffffffffff81111561071b5761071a61040e565b5b610727858286016106b8565b92505060206107388582860161045c565b9150509250929050565b6000819050919050565b61075581610742565b82525050565b6000602082019050610770600083018461074c565b92915050565b7f4e487b7100000000000000000000000000000000000000000000000000000000600052602260045260246000fd5b600060028204905060018216806107bd57607f821691505b6020821081036107d0576107cf610776565b5b50919050565b7f4e6f742041646d696e0000000000000000000000000000000000000000000000600082015250565b600061080c6009836104b8565b9150610817826107d6565b602082019050919050565b6000602082019050818103600083015261083b816107ff565b9050919050565b7f44657669636520616c7265616479207265676973746572656400000000000000600082015250565b60006108786019836104b8565b915061088382610842565b602082019050919050565b600060208201905081810360008301526108a78161086b565b9050919050565b60008190508160005260206000209050919050565b60006020601f8301049050919050565b600082821b905092915050565b6000600883026109107fffffffffffffffffffffffffffffffffffffffffffffffffffffffffffffffff826108d3565b61091a86836108d3565b95508019841693508086168417925050509392505050565b6000819050919050565b600061095761095261094d84610742565b610932565b610742565b9050919050565b6000819050919050565b6109718361093c565b61098561097d8261095e565b8484546108e0565b825550505050565b600090565b61099a61098d565b6109a5818484610968565b505050565b5b818110156109c9576109be600082610992565b6001810190506109ab565b5050565b601f821115610a0e576109df816108ae565b6109e8846108c3565b810160208510156109f7578190505b610a0b610a03856108c3565b8301826109aa565b50505b505050565b600082821c905092915050565b6000610a3160001984600802610a13565b1980831691505092915050565b6000610a4a8383610a20565b9150826002028217905092915050565b610a63826104ad565b67ffffffffffffffff811115610a7c57610a7b6105bb565b5b610a8682546107a5565b610a918282856109cd565b600060209050601f831160018114610ac45760008415610ab2578287015190505b610abc8582610a3e565b865550610b24565b601f198416610ad2866108ae565b60005b82811015610afa57848901518255600182019150602085019450602081019050610ad5565b86831015610b175784890151610b13601f891682610a20565b8355505b6001600288020188555050505b50505050505056fea26469706673582212200a5a923ce97952ad8795fcef807ce286832a3570dc6d02e7477d6d996bd6842864736f6c63430008110033",
  "immutableReferences": {},
  "source": "// SPDX-License-Identifier: MIT\npragma solidity ^0.8.7;\n\ncontract Registration {\n    address public adminAdr;\n    uint256 public id = 0;\n    mapping(address => Device) public deviceList;\n\n    constructor() public {\n        adminAdr = msg.sender;\n    }\n\n    struct Device {\n        address device_id;\n        string device_name;\n        bool isRegistered;\n    }\n\n    modifier onlyAdmin() {\n        require(msg.sender == adminAdr, \"Not Admin\");\n        _;\n    }\n\n    function registerAccount(string memory device_name, address device_id)\n        public\n        onlyAdmin\n    {\n        require(\n            deviceList[device_id].isRegistered == false,\n            \"Device already registered\"\n        );\n        deviceList[device_id] = Device(device_id, device_name,true);\n    }\n}\n",
  "sourcePath": "/Users/merkol/Developer/blockchain-for-iot/Truffle-project/contracts/Registration.sol",
  "compiler": {
    "name": "solc",
    "version": "0.8.17+commit.8df45f5f.Emscripten.clang"
  },
  "schemaVersion": "3.4.11",
  "updatedAt": "2022-11-28T14:51:59.100Z",
  "networkType": "ethereum",
  "devdoc": {
    "kind": "dev",
    "methods": {},
    "version": 1
  },
  "userdoc": {
    "kind": "user",
    "methods": {},
    "version": 1
  }
}