{
  "contractName": "Storage",
  "abi": [
    {
      "inputs": [],
      "name": "data",
      "outputs": [
        {
          "internalType": "uint256",
          "name": "",
          "type": "uint256"
        }
      ],
      "stateMutability": "view",
      "type": "function",
      "constant": true
    },
    {
      "inputs": [
        {
          "internalType": "uint256",
          "name": "_data",
          "type": "uint256"
        }
      ],
      "name": "set",
      "outputs": [],
      "stateMutability": "nonpayable",
      "type": "function"
    }
  ],
  "bytecode": "0x608060405234801561001057600080fd5b50610133806100206000396000f3fe6080604052348015600f57600080fd5b506004361060325760003560e01c806360fe47b114603757806373d4a13a14604f575b600080fd5b604d60048036038101906049919060af565b6069565b005b60556073565b6040516060919060e4565b60405180910390f35b8060008190555050565b60005481565b600080fd5b6000819050919050565b608f81607e565b8114609957600080fd5b50565b60008135905060a9816088565b92915050565b60006020828403121560c25760c16079565b5b600060ce84828501609c565b91505092915050565b60de81607e565b82525050565b600060208201905060f7600083018460d7565b9291505056fea26469706673582212207396a082103a30a69a0c5421e14b82554a5ebec2ec3a950f9b9cd0c31be6aa7064736f6c63430008110033",
  "immutableReferences": {},
  "source": "pragma solidity ^0.8.7;\n\ncontract Storage {\n    uint public data;\n\n    function set(uint _data) external {\n        data = _data;\n    }\n}",
  "sourcePath": "/Users/merkol/Developer/blockchain-for-iot/Truffle-project/contracts/Storage.sol",
  "compiler": {
    "name": "solc",
    "version": "0.8.17+commit.8df45f5f.Emscripten.clang"
  },
  "schemaVersion": "3.4.11",
  "updatedAt": "2022-11-27T13:44:19.553Z",
  "networkType": "ethereum",
  "devdoc": {
    "kind": "dev",
    "methods": {},
    "version": 1
  },
  "userdoc": {
    "kind": "user",
    "methods": {},
    "version": 1
  }
}